{
  "address": "0xDED2DEDf0cF48033cb50a4EF3e7587bAbc227151",
  "abi": [
    {
      "anonymous": false,
      "inputs": [
        {
          "indexed": true,
          "internalType": "address",
          "name": "owner",
          "type": "address"
        },
        {
          "indexed": true,
          "internalType": "address",
          "name": "spender",
          "type": "address"
        },
        {
          "indexed": false,
          "internalType": "uint256",
          "name": "value",
          "type": "uint256"
        }
      ],
      "name": "Approval",
      "type": "event"
    },
    {
      "anonymous": false,
      "inputs": [
        {
          "indexed": true,
          "internalType": "address",
          "name": "to",
          "type": "address"
        },
        {
          "indexed": false,
          "internalType": "uint256",
          "name": "amount",
          "type": "uint256"
        }
      ],
      "name": "Deposit",
      "type": "event"
    },
    {
      "anonymous": false,
      "inputs": [
        {
          "indexed": true,
          "internalType": "address",
          "name": "from",
          "type": "address"
        },
        {
          "indexed": true,
          "internalType": "address",
          "name": "to",
          "type": "address"
        },
        {
          "indexed": false,
          "internalType": "uint256",
          "name": "value",
          "type": "uint256"
        }
      ],
      "name": "Transfer",
      "type": "event"
    },
    {
      "anonymous": false,
      "inputs": [
        {
          "indexed": true,
          "internalType": "address",
          "name": "from",
          "type": "address"
        },
        {
          "indexed": false,
          "internalType": "uint256",
          "name": "amount",
          "type": "uint256"
        }
      ],
      "name": "Withdrawal",
      "type": "event"
    },
    {
      "inputs": [
        {
          "internalType": "address",
          "name": "owner",
          "type": "address"
        },
        {
          "internalType": "address",
          "name": "spender",
          "type": "address"
        }
      ],
      "name": "allowance",
      "outputs": [
        {
          "internalType": "uint256",
          "name": "",
          "type": "uint256"
        }
      ],
      "stateMutability": "view",
      "type": "function"
    },
    {
      "inputs": [
        {
          "internalType": "address",
          "name": "spender",
          "type": "address"
        },
        {
          "internalType": "uint256",
          "name": "amount",
          "type": "uint256"
        }
      ],
      "name": "approve",
      "outputs": [
        {
          "internalType": "bool",
          "name": "",
          "type": "bool"
        }
      ],
      "stateMutability": "nonpayable",
      "type": "function"
    },
    {
      "inputs": [
        {
          "internalType": "address",
          "name": "account",
          "type": "address"
        }
      ],
      "name": "balanceOf",
      "outputs": [
        {
          "internalType": "uint256",
          "name": "",
          "type": "uint256"
        }
      ],
      "stateMutability": "view",
      "type": "function"
    },
    {
      "inputs": [],
      "name": "decimals",
      "outputs": [
        {
          "internalType": "uint8",
          "name": "",
          "type": "uint8"
        }
      ],
      "stateMutability": "view",
      "type": "function"
    },
    {
      "inputs": [
        {
          "internalType": "address",
          "name": "spender",
          "type": "address"
        },
        {
          "internalType": "uint256",
          "name": "subtractedValue",
          "type": "uint256"
        }
      ],
      "name": "decreaseAllowance",
      "outputs": [
        {
          "internalType": "bool",
          "name": "",
          "type": "bool"
        }
      ],
      "stateMutability": "nonpayable",
      "type": "function"
    },
    {
      "inputs": [],
      "name": "deposit",
      "outputs": [],
      "stateMutability": "payable",
      "type": "function"
    },
    {
      "inputs": [
        {
          "internalType": "address",
          "name": "spender",
          "type": "address"
        },
        {
          "internalType": "uint256",
          "name": "addedValue",
          "type": "uint256"
        }
      ],
      "name": "increaseAllowance",
      "outputs": [
        {
          "internalType": "bool",
          "name": "",
          "type": "bool"
        }
      ],
      "stateMutability": "nonpayable",
      "type": "function"
    },
    {
      "inputs": [],
      "name": "name",
      "outputs": [
        {
          "internalType": "string",
          "name": "",
          "type": "string"
        }
      ],
      "stateMutability": "view",
      "type": "function"
    },
    {
      "inputs": [],
      "name": "symbol",
      "outputs": [
        {
          "internalType": "string",
          "name": "",
          "type": "string"
        }
      ],
      "stateMutability": "view",
      "type": "function"
    },
    {
      "inputs": [],
      "name": "totalSupply",
      "outputs": [
        {
          "internalType": "uint256",
          "name": "",
          "type": "uint256"
        }
      ],
      "stateMutability": "view",
      "type": "function"
    },
    {
      "inputs": [
        {
          "internalType": "address",
          "name": "recipient",
          "type": "address"
        },
        {
          "internalType": "uint256",
          "name": "amount",
          "type": "uint256"
        }
      ],
      "name": "transfer",
      "outputs": [
        {
          "internalType": "bool",
          "name": "",
          "type": "bool"
        }
      ],
      "stateMutability": "nonpayable",
      "type": "function"
    },
    {
      "inputs": [
        {
          "internalType": "address",
          "name": "sender",
          "type": "address"
        },
        {
          "internalType": "address",
          "name": "recipient",
          "type": "address"
        },
        {
          "internalType": "uint256",
          "name": "amount",
          "type": "uint256"
        }
      ],
      "name": "transferFrom",
      "outputs": [
        {
          "internalType": "bool",
          "name": "",
          "type": "bool"
        }
      ],
      "stateMutability": "nonpayable",
      "type": "function"
    },
    {
      "inputs": [
        {
          "internalType": "uint256",
          "name": "wad",
          "type": "uint256"
        }
      ],
      "name": "withdraw",
      "outputs": [],
      "stateMutability": "nonpayable",
      "type": "function"
    },
    {
      "stateMutability": "payable",
      "type": "receive"
    }
  ],
  "transactionHash": "0x670da83ab202428e307d1707196224212fc69c1f11a0ee121dd18cb11e5a394a",
  "args": [],
  "solcInputHash": "85a16e2d86e8dbd13ad43a1efb5d4ac6",
  "bytecode": "0x60c0604052600b60808190526a15dc985c1c19590814d15360aa1b60a090815261002c9160009190610078565b506040805180820190915260048082526315d4d15360e21b602090920191825261005891600191610078565b506002805460ff1916601217905534801561007257600080fd5b50610119565b828054600181600116156101000203166002900490600052602060002090601f0160209004810192826100ae57600085556100f4565b82601f106100c757805160ff19168380011785556100f4565b828001600101855582156100f4579182015b828111156100f45782518255916020019190600101906100d9565b50610100929150610104565b5090565b5b808211156101005760008155600101610105565b610e9f806101286000396000f3fe6080604052600436106100c65760003560e01c8063395093511161007f578063a457c2d711610059578063a457c2d7146102f1578063a9059cbb1461032a578063d0e30db014610363578063dd62ed3e1461036b576100d5565b8063395093511461027057806370a08231146102a957806395d89b41146102dc576100d5565b806306fdde03146100da578063095ea7b31461016457806318160ddd146101b157806323b872dd146101d85780632e1a7d4d1461021b578063313ce56714610245576100d5565b366100d5576100d36103a6565b005b600080fd5b3480156100e657600080fd5b506100ef610401565b6040805160208082528351818301528351919283929083019185019080838360005b83811015610129578181015183820152602001610111565b50505050905090810190601f1680156101565780820380516001836020036101000a031916815260200191505b509250505060405180910390f35b34801561017057600080fd5b5061019d6004803603604081101561018757600080fd5b506001600160a01b038135169060200135610497565b604080519115158252519081900360200190f35b3480156101bd57600080fd5b506101c66104b4565b60408051918252519081900360200190f35b3480156101e457600080fd5b5061019d600480360360608110156101fb57600080fd5b506001600160a01b038135811691602081013590911690604001356104ba565b34801561022757600080fd5b506100d36004803603602081101561023e57600080fd5b5035610541565b34801561025157600080fd5b5061025a610617565b6040805160ff9092168252519081900360200190f35b34801561027c57600080fd5b5061019d6004803603604081101561029357600080fd5b506001600160a01b038135169060200135610620565b3480156102b557600080fd5b506101c6600480360360208110156102cc57600080fd5b50356001600160a01b031661066e565b3480156102e857600080fd5b506100ef610689565b3480156102fd57600080fd5b5061019d6004803603604081101561031457600080fd5b506001600160a01b0381351690602001356106e9565b34801561033657600080fd5b5061019d6004803603604081101561034d57600080fd5b506001600160a01b038135169060200135610751565b6100d36103a6565b34801561037757600080fd5b506101c66004803603604081101561038e57600080fd5b506001600160a01b0381358116916020013516610765565b6103b76103b1610790565b34610794565b6103bf610790565b6001600160a01b03167fe1fffcc4923d04b559f4d29a8bfc6cda04eb5b0d3c460751c2402c5c5cc9109c346040518082815260200191505060405180910390a2565b60008054604080516020601f600260001961010060018816150201909516949094049384018190048102820181019092528281526060939092909183018282801561048d5780601f106104625761010080835404028352916020019161048d565b820191906000526020600020905b81548152906001019060200180831161047057829003601f168201915b5050505050905090565b60006104ab6104a4610790565b8484610886565b50600192915050565b60055490565b60006104c7848484610972565b610537846104d3610790565b61053285604051806060016040528060288152602001610db3602891396001600160a01b038a16600090815260046020526040812090610511610790565b6001600160a01b031681526020810191909152604001600020549190610acf565b610886565b5060019392505050565b806003600061054e610790565b6001600160a01b03166001600160a01b0316815260200190815260200160002054101561057a57600080fd5b61058b610585610790565b82610b66565b610593610790565b6001600160a01b03166108fc829081150290604051600060405180830381858888f193505050501580156105cb573d6000803e3d6000fd5b506105d4610790565b6001600160a01b03167f7fcf532c15f0a6db0bd6d0e038bea71d30d808c7d98cb3bf7268a95bf5081b65826040518082815260200191505060405180910390a250565b60025460ff1690565b60006104ab61062d610790565b84610532856004600061063e610790565b6001600160a01b03908116825260208083019390935260409182016000908120918c168152925290205490610c62565b6001600160a01b031660009081526003602052604090205490565b60018054604080516020601f6002600019610100878916150201909516949094049384018190048102820181019092528281526060939092909183018282801561048d5780601f106104625761010080835404028352916020019161048d565b60006104ab6106f6610790565b8461053285604051806060016040528060258152602001610e456025913960046000610720610790565b6001600160a01b03908116825260208083019390935260409182016000908120918d16815292529020549190610acf565b60006104ab61075e610790565b8484610972565b6001600160a01b03918216600090815260046020908152604080832093909416825291909152205490565b3390565b6001600160a01b0382166107ef576040805162461bcd60e51b815260206004820152601f60248201527f45524332303a206d696e7420746f20746865207a65726f206164647265737300604482015290519081900360640190fd5b6107fb60008383610cc3565b6005546108089082610c62565b6005556001600160a01b03821660009081526003602052604090205461082e9082610c62565b6001600160a01b03831660008181526003602090815260408083209490945583518581529351929391927fddf252ad1be2c89b69c2b068fc378daa952ba7f163c4a11628f55a4df523b3ef9281900390910190a35050565b6001600160a01b0383166108cb5760405162461bcd60e51b8152600401808060200182810382526024815260200180610e216024913960400191505060405180910390fd5b6001600160a01b0382166109105760405162461bcd60e51b8152600401808060200182810382526022815260200180610d6b6022913960400191505060405180910390fd5b6001600160a01b03808416600081815260046020908152604080832094871680845294825291829020859055815185815291517f8c5be1e5ebec7d5bd14f71427d1e84f3dd0314c0f7b2291e5b200ac8c7c3b9259281900390910190a3505050565b6001600160a01b0383166109b75760405162461bcd60e51b8152600401808060200182810382526025815260200180610dfc6025913960400191505060405180910390fd5b6001600160a01b0382166109fc5760405162461bcd60e51b8152600401808060200182810382526023815260200180610d266023913960400191505060405180910390fd5b610a07838383610cc3565b610a4481604051806060016040528060268152602001610d8d602691396001600160a01b0386166000908152600360205260409020549190610acf565b6001600160a01b038085166000908152600360205260408082209390935590841681522054610a739082610c62565b6001600160a01b0380841660008181526003602090815260409182902094909455805185815290519193928716927fddf252ad1be2c89b69c2b068fc378daa952ba7f163c4a11628f55a4df523b3ef92918290030190a3505050565b60008184841115610b5e5760405162461bcd60e51b81526004018080602001828103825283818151815260200191508051906020019080838360005b83811015610b23578181015183820152602001610b0b565b50505050905090810190601f168015610b505780820380516001836020036101000a031916815260200191505b509250505060405180910390fd5b505050900390565b6001600160a01b038216610bab5760405162461bcd60e51b8152600401808060200182810382526021815260200180610ddb6021913960400191505060405180910390fd5b610bb782600083610cc3565b610bf481604051806060016040528060228152602001610d49602291396001600160a01b0385166000908152600360205260409020549190610acf565b6001600160a01b038316600090815260036020526040902055600554610c1a9082610cc8565b6005556040805182815290516000916001600160a01b038516917fddf252ad1be2c89b69c2b068fc378daa952ba7f163c4a11628f55a4df523b3ef9181900360200190a35050565b600082820183811015610cbc576040805162461bcd60e51b815260206004820152601b60248201527f536166654d6174683a206164646974696f6e206f766572666c6f770000000000604482015290519081900360640190fd5b9392505050565b505050565b600082821115610d1f576040805162461bcd60e51b815260206004820152601e60248201527f536166654d6174683a207375627472616374696f6e206f766572666c6f770000604482015290519081900360640190fd5b5090039056fe45524332303a207472616e7366657220746f20746865207a65726f206164647265737345524332303a206275726e20616d6f756e7420657863656564732062616c616e636545524332303a20617070726f766520746f20746865207a65726f206164647265737345524332303a207472616e7366657220616d6f756e7420657863656564732062616c616e636545524332303a207472616e7366657220616d6f756e74206578636565647320616c6c6f77616e636545524332303a206275726e2066726f6d20746865207a65726f206164647265737345524332303a207472616e736665722066726f6d20746865207a65726f206164647265737345524332303a20617070726f76652066726f6d20746865207a65726f206164647265737345524332303a2064656372656173656420616c6c6f77616e63652062656c6f77207a65726fa2646970667358221220be9fde8dc282a41f7971ca6bd57bf636745f48e43cbb5bb3572775ff532aafc364736f6c63430007060033",
  "devdoc": {
    "kind": "dev",
    "methods": {
      "allowance(address,address)": {
        "details": "See {IERC20-allowance}."
      },
      "approve(address,uint256)": {
        "details": "See {IERC20-approve}. Requirements: - `spender` cannot be the zero address."
      },
      "balanceOf(address)": {
        "details": "See {IERC20-balanceOf}."
      },
      "decimals()": {
        "details": "Returns the number of decimals used to get its user representation. For example, if `decimals` equals `2`, a balance of `505` tokens should be displayed to a user as `5,05` (`505 / 10 ** 2`). Tokens usually opt for a value of 18, imitating the relationship between Ether and Wei. This is the value {ERC20} uses, unless {_setupDecimals} is called. NOTE: This information is only used for _display_ purposes: it in no way affects any of the arithmetic of the contract, including {IERC20-balanceOf} and {IERC20-transfer}."
      },
      "decreaseAllowance(address,uint256)": {
        "details": "Atomically decreases the allowance granted to `spender` by the caller. This is an alternative to {approve} that can be used as a mitigation for problems described in {IERC20-approve}. Emits an {Approval} event indicating the updated allowance. Requirements: - `spender` cannot be the zero address. - `spender` must have allowance for the caller of at least `subtractedValue`."
      },
      "increaseAllowance(address,uint256)": {
        "details": "Atomically increases the allowance granted to `spender` by the caller. This is an alternative to {approve} that can be used as a mitigation for problems described in {IERC20-approve}. Emits an {Approval} event indicating the updated allowance. Requirements: - `spender` cannot be the zero address."
      },
      "name()": {
        "details": "Returns the name of the token."
      },
      "symbol()": {
        "details": "Returns the symbol of the token, usually a shorter version of the name."
      },
      "totalSupply()": {
        "details": "See {IERC20-totalSupply}."
      },
      "transfer(address,uint256)": {
        "details": "See {IERC20-transfer}. Requirements: - `recipient` cannot be the zero address. - the caller must have a balance of at least `amount`."
      },
      "transferFrom(address,address,uint256)": {
        "details": "See {IERC20-transferFrom}. Emits an {Approval} event indicating the updated allowance. This is not required by the EIP. See the note at the beginning of {ERC20}; Requirements: - `sender` and `recipient` cannot be the zero address. - `sender` must have a balance of at least `amount`. - the caller must have allowance for ``sender``'s tokens of at least `amount`."
      }
    },
    "version": 1
  },
  "userdoc": {
    "kind": "user",
    "methods": {
      "deposit()": {
        "notice": "Deposit selendra to get wrapped selendra"
      }
    },
    "version": 1
  },
  "storageLayout": {
    "storage": [
      {
        "astId": 773,
        "contract": "contracts/WSEL.sol:WSEL",
        "label": "_name",
        "offset": 0,
        "slot": "0",
        "type": "t_string_storage"
      },
      {
        "astId": 776,
        "contract": "contracts/WSEL.sol:WSEL",
        "label": "_symbol",
        "offset": 0,
        "slot": "1",
        "type": "t_string_storage"
      },
      {
        "astId": 779,
        "contract": "contracts/WSEL.sol:WSEL",
        "label": "_decimals",
        "offset": 0,
        "slot": "2",
        "type": "t_uint8"
      },
      {
        "astId": 783,
        "contract": "contracts/WSEL.sol:WSEL",
        "label": "_balances",
        "offset": 0,
        "slot": "3",
        "type": "t_mapping(t_address,t_uint256)"
      },
      {
        "astId": 789,
        "contract": "contracts/WSEL.sol:WSEL",
        "label": "_allowances",
        "offset": 0,
        "slot": "4",
        "type": "t_mapping(t_address,t_mapping(t_address,t_uint256))"
      },
      {
        "astId": 791,
        "contract": "contracts/WSEL.sol:WSEL",
        "label": "_totalSupply",
        "offset": 0,
        "slot": "5",
        "type": "t_uint256"
      }
    ],
    "types": {
      "t_address": {
        "encoding": "inplace",
        "label": "address",
        "numberOfBytes": "20"
      },
      "t_mapping(t_address,t_mapping(t_address,t_uint256))": {
        "encoding": "mapping",
        "key": "t_address",
        "label": "mapping(address => mapping(address => uint256))",
        "numberOfBytes": "32",
        "value": "t_mapping(t_address,t_uint256)"
      },
      "t_mapping(t_address,t_uint256)": {
        "encoding": "mapping",
        "key": "t_address",
        "label": "mapping(address => uint256)",
        "numberOfBytes": "32",
        "value": "t_uint256"
      },
      "t_string_storage": {
        "encoding": "bytes",
        "label": "string",
        "numberOfBytes": "32"
      },
      "t_uint256": {
        "encoding": "inplace",
        "label": "uint256",
        "numberOfBytes": "32"
      },
      "t_uint8": {
        "encoding": "inplace",
        "label": "uint8",
        "numberOfBytes": "1"
      }
    }
  }
}